{
  "contractName": "supplyChain",
  "abi": [
    {
      "inputs": [],
      "stateMutability": "nonpayable",
      "type": "constructor"
    },
    {
      "anonymous": false,
      "inputs": [
        {
          "indexed": false,
          "internalType": "address",
          "name": "distributer",
          "type": "address"
        }
      ],
      "name": "distributer_Set",
      "type": "event"
    },
    {
      "anonymous": false,
      "inputs": [
        {
          "indexed": false,
          "internalType": "uint32",
          "name": "load_number",
          "type": "uint32"
        }
      ],
      "name": "load_Received",
      "type": "event"
    },
    {
      "anonymous": false,
      "inputs": [
        {
          "indexed": false,
          "internalType": "uint32",
          "name": "load_number",
          "type": "uint32"
        },
        {
          "indexed": false,
          "internalType": "uint256",
          "name": "vaccine_units",
          "type": "uint256"
        },
        {
          "indexed": false,
          "internalType": "string",
          "name": "from",
          "type": "string"
        },
        {
          "indexed": false,
          "internalType": "string",
          "name": "to",
          "type": "string"
        },
        {
          "indexed": false,
          "internalType": "address",
          "name": "Receiver",
          "type": "address"
        }
      ],
      "name": "load_Sent",
      "type": "event"
    },
    {
      "anonymous": false,
      "inputs": [
        {
          "indexed": false,
          "internalType": "address",
          "name": "receiver",
          "type": "address"
        }
      ],
      "name": "receiver_Set",
      "type": "event"
    },
    {
      "inputs": [],
      "name": "admin",
      "outputs": [
        {
          "internalType": "address",
          "name": "",
          "type": "address"
        }
      ],
      "stateMutability": "view",
      "type": "function"
    },
    {
      "inputs": [
        {
          "internalType": "uint256",
          "name": "",
          "type": "uint256"
        }
      ],
      "name": "distributers",
      "outputs": [
        {
          "internalType": "address",
          "name": "",
          "type": "address"
        }
      ],
      "stateMutability": "view",
      "type": "function"
    },
    {
      "inputs": [],
      "name": "loads_received",
      "outputs": [
        {
          "internalType": "uint32",
          "name": "",
          "type": "uint32"
        }
      ],
      "stateMutability": "view",
      "type": "function"
    },
    {
      "inputs": [],
      "name": "loads_sent",
      "outputs": [
        {
          "internalType": "uint32",
          "name": "",
          "type": "uint32"
        }
      ],
      "stateMutability": "view",
      "type": "function"
    },
    {
      "inputs": [
        {
          "internalType": "uint256",
          "name": "",
          "type": "uint256"
        }
      ],
      "name": "receivers",
      "outputs": [
        {
          "internalType": "address",
          "name": "",
          "type": "address"
        }
      ],
      "stateMutability": "view",
      "type": "function"
    },
    {
      "inputs": [
        {
          "internalType": "uint256",
          "name": "_vaccine_units",
          "type": "uint256"
        },
        {
          "internalType": "string",
          "name": "_from_address",
          "type": "string"
        },
        {
          "internalType": "string",
          "name": "_to_address",
          "type": "string"
        },
        {
          "internalType": "string",
          "name": "_secretPhrase",
          "type": "string"
        },
        {
          "internalType": "address",
          "name": "_receiver",
          "type": "address"
        }
      ],
      "name": "sendLoad",
      "outputs": [],
      "stateMutability": "nonpayable",
      "type": "function"
    },
    {
      "inputs": [
        {
          "internalType": "uint32",
          "name": "_load_number",
          "type": "uint32"
        },
        {
          "internalType": "string",
          "name": "_secretPhrase",
          "type": "string"
        }
      ],
      "name": "confirmLoadReceived",
      "outputs": [
        {
          "internalType": "bool",
          "name": "",
          "type": "bool"
        }
      ],
      "stateMutability": "nonpayable",
      "type": "function"
    },
    {
      "inputs": [
        {
          "internalType": "address",
          "name": "_address",
          "type": "address"
        }
      ],
      "name": "setDistributer",
      "outputs": [],
      "stateMutability": "nonpayable",
      "type": "function"
    },
    {
      "inputs": [
        {
          "internalType": "address",
          "name": "_address",
          "type": "address"
        }
      ],
      "name": "setReceiver",
      "outputs": [],
      "stateMutability": "nonpayable",
      "type": "function"
    },
    {
      "inputs": [
        {
          "internalType": "address",
          "name": "_address",
          "type": "address"
        }
      ],
      "name": "checkDistributer",
      "outputs": [
        {
          "internalType": "bool",
          "name": "",
          "type": "bool"
        }
      ],
      "stateMutability": "view",
      "type": "function"
    },
    {
      "inputs": [
        {
          "internalType": "address",
          "name": "_address",
          "type": "address"
        }
      ],
      "name": "checkReceiver",
      "outputs": [
        {
          "internalType": "bool",
          "name": "",
          "type": "bool"
        }
      ],
      "stateMutability": "view",
      "type": "function"
    }
  ],
  "bytecode": "0x608060405260008060006101000a81548163ffffffff021916908363ffffffff16021790555060008060046101000a81548163ffffffff021916908363ffffffff16021790555034801561005257600080fd5b5033600060086101000a81548173ffffffffffffffffffffffffffffffffffffffff021916908373ffffffffffffffffffffffffffffffffffffffff160217905550611517806100a36000396000f3fe608060405234801561001057600080fd5b50600436106100a95760003560e01c80639c369125116100715780639c36912514610285578063a0ffa971146102e1578063bfd772fc146104f4578063e583077014610562578063f4d748cc146105a6578063f851a44014610614576100a9565b80630ea6a95a146100ae57806318b42cf9146100d85780633dd00861146101bb5780634f8b69ef14610217578063718da7ee14610241575b600080fd5b6100b661065e565b604051808263ffffffff1663ffffffff16815260200191505060405180910390f35b6101a1600480360360408110156100ee57600080fd5b81019080803563ffffffff1690602001909291908035906020019064010000000081111561011b57600080fd5b82018360208201111561012d57600080fd5b8035906020019184600183028401116401000000008311171561014f57600080fd5b91908080601f016020809104026020016040519081016040528093929190818152602001838380828437600081840152601f19601f820116905080830192505050505050509192919290505050610673565b604051808215151515815260200191505060405180910390f35b6101fd600480360360208110156101d157600080fd5b81019080803573ffffffffffffffffffffffffffffffffffffffff169060200190929190505050610a58565b604051808215151515815260200191505060405180910390f35b61021f610b05565b604051808263ffffffff1663ffffffff16815260200191505060405180910390f35b6102836004803603602081101561025757600080fd5b81019080803573ffffffffffffffffffffffffffffffffffffffff169060200190929190505050610b1b565b005b6102c76004803603602081101561029b57600080fd5b81019080803573ffffffffffffffffffffffffffffffffffffffff169060200190929190505050610c8a565b604051808215151515815260200191505060405180910390f35b6104f2600480360360a08110156102f757600080fd5b81019080803590602001909291908035906020019064010000000081111561031e57600080fd5b82018360208201111561033057600080fd5b8035906020019184600183028401116401000000008311171561035257600080fd5b91908080601f016020809104026020016040519081016040528093929190818152602001838380828437600081840152601f19601f820116905080830192505050505050509192919290803590602001906401000000008111156103b557600080fd5b8201836020820111156103c757600080fd5b803590602001918460018302840111640100000000831117156103e957600080fd5b91908080601f016020809104026020016040519081016040528093929190818152602001838380828437600081840152601f19601f8201169050808301925050505050505091929192908035906020019064010000000081111561044c57600080fd5b82018360208201111561045e57600080fd5b8035906020019184600183028401116401000000008311171561048057600080fd5b91908080601f016020809104026020016040519081016040528093929190818152602001838380828437600081840152601f19601f820116905080830192505050505050509192919290803573ffffffffffffffffffffffffffffffffffffffff169060200190929190505050610d37565b005b6105206004803603602081101561050a57600080fd5b81019080803590602001909291905050506110ae565b604051808273ffffffffffffffffffffffffffffffffffffffff1673ffffffffffffffffffffffffffffffffffffffff16815260200191505060405180910390f35b6105a46004803603602081101561057857600080fd5b81019080803573ffffffffffffffffffffffffffffffffffffffff1690602001909291905050506110ea565b005b6105d2600480360360208110156105bc57600080fd5b8101908080359060200190929190505050611259565b604051808273ffffffffffffffffffffffffffffffffffffffff1673ffffffffffffffffffffffffffffffffffffffff16815260200191505060405180910390f35b61061c611295565b604051808273ffffffffffffffffffffffffffffffffffffffff1673ffffffffffffffffffffffffffffffffffffffff16815260200191505060405180910390f35b6000809054906101000a900463ffffffff1681565b600061067e33610a58565b6106d3576040517f08c379a000000000000000000000000000000000000000000000000000000000815260040180806020018281038252602b8152602001806114b7602b913960400191505060405180910390fd5b61079782600160008663ffffffff1663ffffffff1681526020019081526020016000206004018054600181600116156101000203166002900480601f01602080910402602001604051908101604052809291908181526020018280546001816001161561010002031660029004801561078d5780601f106107625761010080835404028352916020019161078d565b820191906000526020600020905b81548152906001019060200180831161077057829003601f168201915b50505050506112bb565b610809576040517f08c379a00000000000000000000000000000000000000000000000000000000081526004018080602001828103825260178152602001807f496e636f7272656374205365637265742050687261736500000000000000000081525060200191505060405180910390fd5b60008363ffffffff1611610885576040517f08c379a00000000000000000000000000000000000000000000000000000000081526004018080602001828103825260138152602001807f496e76616c6964204c6f6164204e756d6265720000000000000000000000000081525060200191505060405180910390fd5b600160008463ffffffff1663ffffffff16815260200190815260200160002060060160009054906101000a900473ffffffffffffffffffffffffffffffffffffffff1673ffffffffffffffffffffffffffffffffffffffff163373ffffffffffffffffffffffffffffffffffffffff1614610968576040517f08c379a00000000000000000000000000000000000000000000000000000000081526004018080602001828103825260108152602001807f496e76616c69642052656365697665720000000000000000000000000000000081525060200191505060405180910390fd5b60018060008563ffffffff1663ffffffff16815260200190815260200160002060030160006101000a81548160ff0219169083151502179055506000600481819054906101000a900463ffffffff168092919060010191906101000a81548163ffffffff021916908363ffffffff160217905550507fae9c7f4b9225a4b7eaa4dc92e7b880afd215ed86726ae997857b56468aaeecfb83604051808263ffffffff1663ffffffff16815260200191505060405180910390a1600160008463ffffffff1663ffffffff16815260200190815260200160002060030160009054906101000a900460ff16905092915050565b6000806000905060008090505b6004805490508163ffffffff161015610afb5760048163ffffffff1681548110610a8b57fe5b9060005260206000200160009054906101000a900473ffffffffffffffffffffffffffffffffffffffff1673ffffffffffffffffffffffffffffffffffffffff168473ffffffffffffffffffffffffffffffffffffffff161415610aee57600191505b8080600101915050610a65565b5080915050919050565b600060049054906101000a900463ffffffff1681565b600060089054906101000a900473ffffffffffffffffffffffffffffffffffffffff1673ffffffffffffffffffffffffffffffffffffffff163373ffffffffffffffffffffffffffffffffffffffff1614610bc1576040517f08c379a00000000000000000000000000000000000000000000000000000000081526004018080602001828103825260268152602001806114636026913960400191505060405180910390fd5b6004819080600181540180825580915050600190039060005260206000200160009091909190916101000a81548173ffffffffffffffffffffffffffffffffffffffff021916908373ffffffffffffffffffffffffffffffffffffffff1602179055507f1ac433a2647f9d793d3c0953c7d5e56e1a5c1cf8e2b1feb89897ad330b6483ab81604051808273ffffffffffffffffffffffffffffffffffffffff1673ffffffffffffffffffffffffffffffffffffffff16815260200191505060405180910390a150565b6000806000905060008090505b6003805490508163ffffffff161015610d2d5760038163ffffffff1681548110610cbd57fe5b9060005260206000200160009054906101000a900473ffffffffffffffffffffffffffffffffffffffff1673ffffffffffffffffffffffffffffffffffffffff168473ffffffffffffffffffffffffffffffffffffffff161415610d2057600191505b8080600101915050610c97565b5080915050919050565b610d4033610c8a565b610d95576040517f08c379a000000000000000000000000000000000000000000000000000000000815260040180806020018281038252602e815260200180611489602e913960400191505060405180910390fd5b60008081819054906101000a900463ffffffff168092919060010191906101000a81548163ffffffff021916908363ffffffff160217905550506000600160008060009054906101000a900463ffffffff1663ffffffff1663ffffffff168152602001908152602001600020905085816000018190555084816001019080519060200190610e249291906113bd565b5083816002019080519060200190610e3d9291906113bd565b5082816004019080519060200190610e569291906113bd565b50338160050160006101000a81548173ffffffffffffffffffffffffffffffffffffffff021916908373ffffffffffffffffffffffffffffffffffffffff160217905550818160060160006101000a81548173ffffffffffffffffffffffffffffffffffffffff021916908373ffffffffffffffffffffffffffffffffffffffff16021790555060026000809054906101000a900463ffffffff1690806001815401808255809150506001900390600052602060002090600891828204019190066004029091909190916101000a81548163ffffffff021916908363ffffffff1602179055507f3fd5702980aa6ad9e7f6219bcecf2378723acb26edb95fe8894336692b5bd82d6000809054906101000a900463ffffffff1687878786604051808663ffffffff1663ffffffff16815260200185815260200180602001806020018473ffffffffffffffffffffffffffffffffffffffff1673ffffffffffffffffffffffffffffffffffffffff168152602001838103835286818151815260200191508051906020019080838360005b83811015611001578082015181840152602081019050610fe6565b50505050905090810190601f16801561102e5780820380516001836020036101000a031916815260200191505b50838103825285818151815260200191508051906020019080838360005b8381101561106757808201518184015260208101905061104c565b50505050905090810190601f1680156110945780820380516001836020036101000a031916815260200191505b5097505050505050505060405180910390a1505050505050565b600481815481106110bb57fe5b906000526020600020016000915054906101000a900473ffffffffffffffffffffffffffffffffffffffff1681565b600060089054906101000a900473ffffffffffffffffffffffffffffffffffffffff1673ffffffffffffffffffffffffffffffffffffffff163373ffffffffffffffffffffffffffffffffffffffff1614611190576040517f08c379a00000000000000000000000000000000000000000000000000000000081526004018080602001828103825260268152602001806114636026913960400191505060405180910390fd5b6003819080600181540180825580915050600190039060005260206000200160009091909190916101000a81548173ffffffffffffffffffffffffffffffffffffffff021916908373ffffffffffffffffffffffffffffffffffffffff1602179055507f1b56cde699d697befda1e1656dfad851d6b9ae444513886afcfdbf263c53d19181604051808273ffffffffffffffffffffffffffffffffffffffff1673ffffffffffffffffffffffffffffffffffffffff16815260200191505060405180910390a150565b6003818154811061126657fe5b906000526020600020016000915054906101000a900473ffffffffffffffffffffffffffffffffffffffff1681565b600060089054906101000a900473ffffffffffffffffffffffffffffffffffffffff1681565b600081518351146112cf57600090506113b7565b816040516020018082805190602001908083835b6020831061130657805182526020820191506020810190506020830392506112e3565b6001836020036101000a03801982511681845116808217855250505050505090500191505060405160208183030381529060405280519060200120836040516020018082805190602001908083835b602083106113785780518252602082019150602081019050602083039250611355565b6001836020036101000a038019825116818451168082178552505050505050905001915050604051602081830303815290604052805190602001201490505b92915050565b828054600181600116156101000203166002900490600052602060002090601f016020900481019282601f106113fe57805160ff191683800117855561142c565b8280016001018555821561142c579182015b8281111561142b578251825591602001919060010190611410565b5b509050611439919061143d565b5090565b61145f91905b8082111561145b576000816000905550600101611443565b5090565b9056fe4f6e6c792041646d696e206861732061636365737320746f20746869732066756e6374696f6e4f6e6c792064697374726962757465727320686176652061636365737320746f20746869732066756e6374696f6e4f6e6c792072656365697665727320686176652061636365737320746f20746869732066756e6374696f6ea26469706673582212209f142be01514285501ae63e0e1c6c913ad9801e8a839ec27a0405800adf95bd764736f6c63430006070033",
  "immutableReferences": {},
  "source": "\r\n\r\n/**\r\n * Created on:  20/04/2020\r\n * First Update: 07/05/2020\r\n * Second Update: 09/05/2020\r\n * @summary: This is a supply chain management smart contract that overcomes the pitfalls of unsecure supply chains\r\n * @author: Aaryamann Challani\r\n */\r\npragma solidity 0.6.7;\r\n\r\ncontract supplyChain{\r\n    uint32 public loads_sent=0;\r\n    uint32 public loads_received=0;\r\n    address public admin;\r\n    struct Load{\r\n        uint256 vaccine_units;\r\n        string from_address;\r\n        string to_address;\r\n        bool Load_Received;\r\n        string secretPhrase;\r\n        address sender;\r\n        address receiver;\r\n    }\r\n    mapping(uint32=>Load) private load;\r\n    uint32[] private vaccine_loads;\r\n    address[] public distributers;\r\n    address[] public receivers;\r\n\r\n/**\r\n * \r\n */\r\n    constructor() public{\r\n        admin=msg.sender;\r\n    }\r\n    modifier onlyAdmin(){\r\n        require(msg.sender==admin,\"Only Admin has access to this function\");_;\r\n    }\r\n\r\n    event load_Sent(\r\n        uint32 load_number,\r\n        uint256 vaccine_units,\r\n        string from,\r\n        string to,\r\n        address Receiver\r\n        );\r\n\r\n    event distributer_Set(\r\n        address distributer\r\n        );\r\n\r\n    event receiver_Set(\r\n        address receiver);\r\n\r\n    event load_Received(\r\n        uint32 load_number\r\n        );\r\n\r\n\r\n/**\r\n * \r\n * @param  _vaccine_units :  Number of Vaccine Units being loads_sent\r\n * @param _from_address :  The Address of Origin\r\n * @param _to_address :  The Address of Destination\r\n * @param _secretPhrase :  The secret phrase attached to the Load of Vaccine\r\n * @param _receiver :  Ethereum address of the receiver\r\n */\r\n    function sendLoad(uint256 _vaccine_units, string memory _from_address, string memory _to_address,string memory _secretPhrase,address _receiver) public\r\n    {\r\n        require(checkDistributer(msg.sender),\"Only distributers have access to this function\");\r\n        loads_sent++;\r\n        Load storage Vaccine=load[loads_sent];\r\n        Vaccine.vaccine_units=_vaccine_units;\r\n        Vaccine.from_address=_from_address;\r\n        Vaccine.to_address=_to_address;\r\n        Vaccine.secretPhrase=_secretPhrase;\r\n        Vaccine.sender=msg.sender;\r\n        Vaccine.receiver=_receiver;\r\n        vaccine_loads.push(loads_sent);\r\n        emit load_Sent(loads_sent,_vaccine_units,_from_address,_to_address,_receiver);\r\n    }\r\n/**\r\n * \r\n * @param  _load_number :  Load Number of the Vaccine Load\r\n * @param _secretPhrase :  secret phrase to match with that of the secret phrase of the load\r\n * @return :\r\n */\r\n    function confirmLoadReceived(uint32 _load_number,string memory _secretPhrase) public returns(bool)\r\n    {\r\n        require(checkReceiver(msg.sender),\"Only receivers have access to this function\");\r\n        require(hashCompareWithLengthCheck(_secretPhrase,load[_load_number].secretPhrase),\"Incorrect Secret Phrase\");\r\n     //   require(keccak256(abi.encodePacked(_secretPhrase))==keccak256(abi.encodePacked(load[_load_number].secretPhrase)),\"Incorrect Secret Phrase\");\r\n        require(_load_number>0,\"Invalid Load Number\");\r\n        require(msg.sender==load[_load_number].receiver,\"Invalid Receiver\");\r\n        load[_load_number].Load_Received=true;\r\n        loads_received++;\r\n        emit load_Received(_load_number);\r\n        return(load[_load_number].Load_Received);\r\n\r\n    }\r\n/**\r\n * \r\n * @param  _address :  Ethereum Address of distributer\r\n */\r\n    function setDistributer(address _address) onlyAdmin() public{\r\n        distributers.push(_address);\r\n        emit distributer_Set(_address);\r\n    }\r\n/**\r\n * \r\n * @param  _address :  Ethereum Address of Receiver\r\n */\r\n    function setReceiver(address _address) onlyAdmin() public{\r\n        receivers.push(_address);\r\n        emit receiver_Set(_address);\r\n    }\r\n/**\r\n * \r\n * @param  _address : Ethereum Address of distributer\r\n * @return : true/false depending on the nature of given address\r\n */\r\n    function checkDistributer(address _address) public view returns(bool){\r\n        bool c=false;\r\n        for(uint32 i=0;i<distributers.length;i++){\r\n            if(_address==distributers[i])\r\n              c=true;\r\n        }\r\n        return(c);\r\n    }\r\n/**\r\n * \r\n * @param  _address :  Ethereum Address of receiver\r\n * @return : true/false depending on the nature of given address\r\n */\r\n    function checkReceiver(address _address) public view returns(bool){\r\n        bool c=false;\r\n        for(uint32 i=0;i<receivers.length;i++){\r\n            if(_address==receivers[i])\r\n              c=true;\r\n        }\r\n        return(c);\r\n    }\r\n/**\r\n * \r\n * @param a :  Input Secret phrase\r\n * @param b :  Secret Phrase attached to load\r\n * @return :\r\n */\r\n    function hashCompareWithLengthCheck(string memory a,string memory b) private pure returns(bool){\r\n    if(bytes(a).length != bytes(b).length) {\r\n        return false;\r\n    } else {\r\n        return keccak256(abi.encodePacked(a)) == keccak256(abi.encodePacked(b));\r\n    }\r\n}\r\n}",
  "sourcePath": "C:\\Users\\Aaryamann\\Documents\\GitHub\\covid-vaccine-supplychain\\contracts\\supplyChain.sol",
  "compiler": {
    "name": "solc",
    "version": "0.6.7+commit.b8d736ae.Emscripten.clang"
  },
  "schemaVersion": "3.1.0",
  "updatedAt": "2020-05-24T09:03:11.779Z",
  "devdoc": {
    "methods": {
      "checkDistributer(address)": {
        "params": {
          "_address": ": Ethereum Address of distributer"
        },
        "returns": {
          "_0": ": true/false depending on the nature of given address"
        }
      },
      "checkReceiver(address)": {
        "params": {
          "_address": ":  Ethereum Address of receiver"
        },
        "returns": {
          "_0": ": true/false depending on the nature of given address"
        }
      },
      "confirmLoadReceived(uint32,string)": {
        "params": {
          "_load_number": ":  Load Number of the Vaccine Load",
          "_secretPhrase": ":  secret phrase to match with that of the secret phrase of the load"
        },
        "returns": {
          "_0": ":"
        }
      },
      "sendLoad(uint256,string,string,string,address)": {
        "params": {
          "_from_address": ":  The Address of Origin",
          "_receiver": ":  Ethereum address of the receiver",
          "_secretPhrase": ":  The secret phrase attached to the Load of Vaccine",
          "_to_address": ":  The Address of Destination",
          "_vaccine_units": ":  Number of Vaccine Units being loads_sent"
        }
      },
      "setDistributer(address)": {
        "params": {
          "_address": ":  Ethereum Address of distributer"
        }
      },
      "setReceiver(address)": {
        "params": {
          "_address": ":  Ethereum Address of Receiver"
        }
      }
    }
  },
  "userdoc": {
    "methods": {
      "checkDistributer(address)": {
        "notice": "\r"
      },
      "checkReceiver(address)": {
        "notice": "\r"
      },
      "confirmLoadReceived(uint32,string)": {
        "notice": "\r"
      },
      "constructor": "\r",
      "sendLoad(uint256,string,string,string,address)": {
        "notice": "\r"
      },
      "setDistributer(address)": {
        "notice": "\r"
      },
      "setReceiver(address)": {
        "notice": "\r"
      }
    }
  }
}